S01C00006C7566615F6869645F6465766963655F746573742E73726563DE
S11300000C94B0000C94CD000C94CD000C94CD0055
S11300100C94CD000C94CD000C94CD000C94CD0028
S11300200C94CD000C94CD000C94BA060C94CD0025
S11300300C94CD000C94CD000C94CD000C94CD0008
S11300400C94CD000C94CD000C94CD000C94CD00F8
S11300500C94CD000C94CD000C94CD000C94CD00E8
S11300600C94CD000C94CD000C94CD000C94CD00D8
S11300700C94CD000C94CD000C94CD000C94CD00C8
S11300800C94CD000C94CD000C94CD000C94CD00B8
S11300900C94CD000C94CD000C94CD000C94CD00A8
S11300A00C94CD000C94CD000C94CD00AD07D60774
S11300B0C908D607C90816083A08C9089408A50843
S11300C02C034C0055004600410020004700650009
S11300D06E0065007200690063002000480049005A
S11300E044002000440065006D006F000000180308
S11300F04400650061006E002000430061006D0053
S11301006500720061000000040309040902220072
S1130110010100C0320904000001030000000921AC
S113012011010001222000070581030800051201C6
S1130130100100000008EB03022401000102000189
S11301400600FF0901A1010902150025FF750895A4
S11301500881020903150025FF750895089102C05E
S113016011241FBECFEFDAE0DEBFCDBF12E0A0E066
S1130170B1E0E8E2FAE102C005900D92AE33B107B6
S1130180D9F722E0AEE3B2E001C01D92AA35B2076E
S1130190E1F70E94060A0C94120D0C940000292F1A
S11301A0332723303105C9F044F42130310509F4F3
S11301B039C02230310561F006C02132310541F1E8
S11301C02232310551F180E090E020E030E033C08C
S11301D082E290E02CE031E02EC099278130910535
S11301E059F08230910571F0892B09F5E8E0F1E0CE
S11301F0849190E09F011FC0EEEEF0E0849190E0C6
S11302009F0119C0E0ECF0E0849190E09F0113C0DD
S113021089E090E02EE131E00EC080E290E020E43D
S113022031E009C082E190E02EE231E004C080E0D8
S113023090E020E030E0FA013183208308953F927A
S11302404F925F926F927F928F929F92AF92BF92E2
S1130250CF92DF92EF92FF920F931F93CF93DF938E
S113026000D01F92CDB7DEB76C01EDB6FEB680911B
S1130270E80083FF1CC1F601808190E020915002C8
S1130280309151022817390709F011C180914D02AC
S1130290833009F4A5C030F4813071F0823009F460
S11302A0EAC005C18A3009F4C9C08B3009F4B1C071
S11302B0893009F0FCC054C080914C02813A09F0A5
S11302C0F6C08DB69EB61A821982EEE4F2E0808101
S11302D011818B83F601408550E08DB79EB7841B56
S11302E0950B0FB6F8949EBF0FBE8DBFEDB7FEB74A
S11302F031965F0160E070E0CF010E94480A4FEF41
S1130300410F8E010F5F1F4F9501BE016D5F7F4F3F
S1130310C6010E948209F60186819781009729F01F
S1130320408550E0B5010E943F0A1092E900E8EED2
S1130330F0E08081877F80838B8181118093F1003D
S113034069817A81C5010E94A803E8EEF0E080810A
S11303508B7780830FB6F8949EBE0FBE8DBEA7C068
S113036080914C02813209F0A2C06DB67EB6A09095
S11303705202B0905302EEE4F2E0508041808DB717
S11303809EB78A199B090FB6F8949EBF0FBE8DBF06
S1130390EDB7FEB731964F0108EE10E0F801808109
S11303A0877F8083B501C4010E942D04F8018081F8
S11303B08E77808321E0511001C020E030E0850178
S11303C0021B130B280D391D4FEF440D652DC6017B
S11303D00E94C7090FB6F8947EBE0FBE6DBE67C0FB
S11303E080914C02813A09F062C0E8EEF0E080812D
S11303F0877F8083808180FFFDCFF6018185809394
S1130400F100E8EEF0E080818E7780830E94F205AF
S11304104EC080914C02813209F049C0E8EEF0E010
S11304208081877F80830E94F20590914E0281E053
S1130430911101C080E0F601818739C080914C029E
S11304408132A9F5E8EEF0E08081877F80830E9405
S1130450F20580914E0290914F0288270024880F64
S1130460991F001C880F991F001C892F902DF601DD
S1130470958784871CC080914C02813AC1F4E8EED0
S1130480F0E08081877F8083808180FFFDCFF6014B
S11304908485958596958795969587958093F100A3
S11304A0E8EEF0E080818E7780830E94F2050FB63B
S11304B0F894FEBE0FBEEDBE0F900F900F90DF912B
S11304C0CF911F910F91FF90EF90DF90CF90BF904D
S11304D0AF909F908F907F906F905F904F903F90E0
S11304E00895FC01399627E0DF011D922A95E9F76A
S11304F021E0FC01218724EF31E03587248723E0C4
S1130500248361E001960E94940508955F926F929E
S11305107F928F929F92AF92BF92CF92DF92EF928F
S1130520FF920F931F93CF93DF9300D01F92CDB709
S1130530DEB77C01CDB6DEB680914B02843009F083
S11305408FC08091E4009091E500F7012285338506
S11305502817390709F484C081818F708093E900DA
S11305608091E80085FF7CC08DB69EB6408550E042
S11305708DB79EB7841B950B0FB6F8949EBF0FBE24
S11305808DBFEDB7FEB731965F011B821A821982C7
S113059060E070E0CF010E94480A8E010F5F1F4F98
S11305A0950140E0BE016D5F7F4FC7010E94820943
S11305B0682EF70124853585232B41F021E08685BB
S11305C09785892B09F020E0522E01C0512CF701A8
S11305D0068117810115110599F049815A81B801E5
S11305E0C5010E94320A77247394892B09F4712C73
S11305F0F701408550E0B501C8010E943F0A01C0DF
S1130600712C29813A81232BF9F0611004C07110F7
S113061002C050FE19C0F7018485958597878687A7
S113062081818F708093E9008B8181118093F10027
S113063069817A8140E050E0C5010E944803E8EEF8
S1130640F0E080818E7780838091E4009091E500D2
S1130650F701938782870FB6F8949EBE0FBE8DBEB6
S11306600FB6F894DEBE0FBECDBE0F900F900F9064
S1130670DF91CF911F910F91FF90EF90DF90CF907A
S1130680BF90AF909F908F907F906F905F900895F0
S11306908F929F92AF92BF92CF92DF92EF92FF928E
S11306A00F931F93CF93DF937C01EB015A010E94B8
S11306B01606811140C0A114B10439F0F5018081FE
S11306C09181C81BD90BE80EF91E209789F100E02F
S11306D010E00F2EF8EE8F2E912CF02D0F2EF1EF4F
S11306E0CF2ED12CF02DF401808185FD16C08081A0
S11306F08E7780830E94EF08A114B10449F0F501BC
S113070080819181080F191F1183008385E013C034
S11307100E941606882349F00EC0F70181917F01DB
S1130720F601808321970F5F1F4F2097E1F602C0E7
S113073080E001C080E0DF91CF911F910F91FF9085
S1130740EF90DF90CF90BF90AF909F908F900895DF
S1130750DF92EF92FF920F931F93CF93DF93209139
S11307605202309153022617370758F0611571056C
S113077039F4E8EEF0E020812E7720839B0101C05C
S11307809B01A0E0E8EEF0E003EF10E062EF70E020
S1130790C1EFD0E0FF24F394E12C38C040914B0228
S11307A0442309F447C0453009F446C0408143FD61
S11307B045C0408142FF03C0E8EEF0E036C040810E
S11307C040FF24C0D801DC90DB014C9150E05D294E
S11307D02115310599F04830510580F4A82FB92F1F
S11307E08D9188838A2F9B2F215031094F5F5F4F52
S11307F02115310519F04830510591F7AF2D4830D6
S1130800510509F0AE2D40814E7740832115310505
S113081029F6A111C3CFD0CF80914B02882381F058
S1130820853081F0808183FD0FC0808182FFF4CF09
S113083080E00BC082E009C083E007C081E005C00E
S113084082E003C083E001C081E0DF91CF911F917A
S11308500F91FF90EF90DF900895CF92DF92FF9277
S11308600F931F93CF93DF936115710529F4E8EE7D
S1130870F0E020812B772083E8EEF0E043EF50E0B6
S11308800F2EF2EFCF2ED12CF02D01EF10E022C06D
S113089020914B022223E1F12530E1F1208123FD57
S11308A03BC0208122FFF4CF43C0E80188818D93AF
S11308B08A2F9B2F615071096115710541F0EA017E
S11308C0F880E601288130E03F29232B71F720814D
S11308D02B7720836115710519F4E8EEF0E013C05D
S11308E020914B022223D1F02530D1F0208123FD29
S11308F019C0208122FD1CC0CBCF80914B028823DC
S113090099F0853099F0808180FFF7CF80E01BC09B
S113091082E019C083E017C081E015C082E013C0F3
S113092083E011C081E00FC082E00DC083E00BC002
S1130930EA01A881E601288130E03A2B232B39F221
S1130940A82FB92FB2CFDF91CF911F910F91FF90B4
S1130950DF90CF900895CF92DF92FF920F931F9371
S1130960CF93DF9320915202309153022617370719
S113097058F06115710539F4E8EEF0E020812E7726
S113098020839B0101C09B01E82FF92F10E0A8EE02
S1130990B0E063EF70E042EF50E00F2EF1EFCF2EA6
S11309A0D12CF02D01E0F12C34C080914B0288232E
S11309B009F443C0853009F442C08C9183FD41C0E1
S11309C08C9182FF03C0E8EEF0E032C08C9180FF8E
S11309D020C0EB011881EA01888190E0912B211558
S11309E0310581F08830910568F41491E60118838B
S11309F031962150310901962115310519F08830BD
S1130A00910599F7102F089709F01F2D8C918E7777
S1130A108C932115310549F61111C7CFD4CF80919C
S1130A204B02882381F0853081F0808183FD0FC0E3
S1130A30808182FFF4CF80E00BC082E009C083E0B4
S1130A4007C081E005C082E003C083E001C081E00B
S1130A50DF91CF911F910F91FF90DF90CF90089578
S1130A608F929F92BF92CF92DF92EF92FF920F9359
S1130A701F93CF93DF93873070F126C0592F5F7097
S1130A80E8015883891731F0E901D8805081E401E5
S1130A90788103C05B2DD62E7C2D51FF12C04C9162
S1130AA04E7F4C9340814D7F40834C9141604C93E9
S1130AB0E901D8825083E4017883E7015881552302
S1130AC044F49F5F9730D1F68F708093E90081E002
S1130AD01FC080E01DC0982F9F709093E900982F4D
S1130AE0542FD62E70E0ABEEB0E0EDEEF0E02CEE3D
S1130AF030E00F2EF0EF8F2E912CF02D0F2EFEEE06
S1130B00EF2EF12CF02D09EE10E0B42EC12CC5CF40
S1130B10DF91CF911F910F91FF90EF90DF90CF90D5
S1130B20BF909F908F900895BF92CF92DF92EF92E3
S1130B30FF920F931F93CF93DF93062F662309F43D
S1130B4042C0C82FD92F10E0F12C6894DD24D3F8CB
S1130B50E12C6894BB24B1F80F2EF6E0CF2EF02DD3
S1130B605881552359F19C81E981FA817B81852F34
S1130B708F70873050F5923010F04C2D01C04B2D02
S1130B80E930F10550F02D2D3E2D9F2D9F5F220F52
S1130B90331F2E173F07D0F301C09F2D9295907FEE
S1130BA0492B551F5527551F90E4799F9001112417
S1130BB0652F622B0E943005882351F01F5F259614
S1130BC01013CECF04C081E003C080E001C081E0F7
S1130BD0DF91CF911F910F91FF90EF90DF90CF9015
S1130BE0BF90089580914C0288231CF0E8EEF0E059
S1130BF014C0E8EEF0E004C080914B028823A9F011
S1130C00808182FFF9CFE8EEF0E080818B778083EA
S1130C10089580914B02882341F0808180FFF9CFB1
S1130C20E8EEF0E080818E77808308950F931F9320
S1130C30CF93DF932091E4003091E50065E6ACEEBC
S1130C40B0E0E8EEF0E00BEE10E044EE50E08C9102
S1130C5080FD21C024C080914B02882381F085301F
S1130C6081F0E801888185FD0EC0EA0188819981BF
S1130C702817390761F3615041F09C01E8CF82E005
S1130C8012C083E010C081E00EC084E00CC080E09C
S1130C900AC080E008C0808180FFDDCFF8CF80816A
S1130CA082FFD9CFF6CFDF91CF911F910F91089595
S1130CB00F931F93CF93DF930E94AD060E94B50656
S1130CC0C8EDD0E088818F778883888180688883A5
S1130CD088818F7D888319BC10924B021092470241
S1130CE0109249021092480200EE10E0F80180814F
S1130CF08B7F808388818160888342E060E080E02C
S1130D000E943005E1EEF0E080818E7F8083E2EE88
S1130D10F0E0808181608083808188608083F80135
S1130D2080818E7F8083888180618883DF91CF91E9
S1130D301F910F910895E8EDF0E080818F7E80830C
S1130D40E7EDF0E080818160808384E082BF81E010
S1130D5080934A020E9458060895E8EDF0E08081ED
S1130D608E7F80831092E20008951092DA00109230
S1130D70E10008951F920F920FB60F9211242F9342
S1130D803F934F935F936F937F938F939F93AF930F
S1130D90BF93EF93FF938091E10082FF0BC080919A
S1130DA0E20082FF07C0E1EEF0E080818B7F808368
S1130DB00E9476098091DA0080FF1FC08091D800DC
S1130DC080FF1BC0EAEDF0E080818E7F80838091FC
S1130DD0D90080FF0DC080E189BD82E189BD09B4DD
S1130DE000FEFDCF81E080934B020E94650905C09F
S1130DF019BC10924B020E9466098091E10080FFA9
S1130E0017C08091E20080FF13C0E2EEF0E0808121
S1130E108E7F8083808180618083E8EDF0E0808133
S1130E208062808319BC85E080934B020E94EE08A7
S1130E308091E10084FF30C08091E20084FF2CC0E7
S1130E4080E189BD82E189BD09B400FEFDCFE8EDF2
S1130E50F0E080818F7D8083E1EEF0E080818F7E01
S1130E608083E2EEF0E080818F7E808380818160E8
S1130E70808380914702882321F084E080934B0291
S1130E8009C08091E300882314F483E001C081E069
S1130E9080934B020E94EE088091E10083FF20C002
S1130EA08091E20083FF1CC0E1EEF0E08081877F47
S1130EB0808382E080934B021092470280818E7F70
S1130EC08083E2EEF0E080818E7F80838081806188
S1130ED0808342E060E080E00E9430050E94EE08DA
S1130EE0FF91EF91BF91AF919F918F917F916F91FE
S1130EF05F914F913F912F910F900FBE0F901F90D4
S1130F0018950F931F93CF93DF93CDB7DEB7AA97AE
S1130F100FB6F894DEBF0FBECDBFECE4F2E084E57B
S1130F2092E0A1EFB0E02C912193E817F907D9F7EB
S1130F300E9471098091E80083FF2BC130914C021B
S1130F4020914D02822F90E08A30910508F021C152
S1130F50FC01EA5AFF4F0C942C0A303821F0323845
S1130F6009F017C108C08091480290914902992361
S1130F7071F082600CC0809150028F70E9EEF0E055
S1130F8080838091EB0085FB882780F91082E8EE4E
S1130F90F0E09081977F9083A1EFB0E08C931C9256
S1130FA080818E7780830E94F205F3C0332309F495
S1130FB0FFC0323009F0EDC000C181E0233009F0F8
S1130FC080E08093490228C0209150022F7009F4D8
S1130FD0E0C02093E9008091EB0080FF1DC0809168
S1130FE04D02833031F4EBEEF0E080818062808347
S1130FF013C0EBEEF0E080818061808381E090E0BB
S113100002C0880F991F2A95E2F7AAEEB0E08C93EC
S11310101C928081886080831092E900E8EEF0E001
S11310208081877F80830E94F205B3C03111B1C0F3
S113103010914E021F77E3EEF0E080818078812BDF
S11310408083E8EEF0E08081877F80830E94F20550
S1131050E8EEF0E0808180FFFDCFE3EEF0E08081F8
S113106080688083112311F083E001C082E08093C3
S11310704B028FC03058323008F08BC080914E0242
S113108090914F028C3D23E09207A1F583E08A837F
S11310908AE289835FB7F894DE01139620E03EE08C
S11310A041E2E32FF0E040935700849120FF03C016
S11310B082958F703F5F8F708A3018F090E0C796EA
S11310C002C090E0C0968D939D932F5F243149F721
S11310D05FBF08EE10E0F8018081877F80836AE2B9
S11310E070E0CE0101960E94A803F80180818B77FD
S11310F080834FC0AE014F5F5F4F609150020E94EA
S1131100CF00009709F445C008EE10E0F8012081F3
S1131110277F2083BC0189819A810E94AB04F80156
S113112080818B77808335C0303899F5E8EEF0E024
S11311308081877F8083809147028093F100808142
S11311408E7780830E94F20524C0311122C08091E1
S11311504E028230F0F4E8EEF0E08081877F8083F5
S113116080914E02809347020E94F20580914702CB
S1131170882321F084E080934B0209C08091E3002E
S1131180882314F484E001C081E080934B020E9420
S113119067098091E80083FF16C0E8EEF0E08081E3
S11311A0877F8083EBEEF0E08081806280830BC0D8
S11311B080914E02813069F700CF80914E028823DE
S11311C009F402CF29CFAA960FB6F894DEBF0FBE5A
S11311D0CDBFDF91CF911F910F9108950895CF93C3
S11311E080914B028823A9F0C091E900CF708091CF
S11311F0EC0080FF02C080E801C080E0C82B1092A0
S1131200E9008091E80083FD0E948107CF70C093BC
S1131210E900CF910895E8ECF0E0908195FFFDCFCF
S11312208093CE000895CF93C82F8A3019F48DE0AF
S11312300E9413098C2F0E940B0980E090E0CF914B
S11312400895E8ECF0E020812223ECF72091CE0011
S1131250FC01208308950F931F93CF93DF931F9274
S1131260CDB7DEB78C01CE0101960E942109B801E9
S113127089810E941309898190E00F90DF91CF91B9
S11312801F910F91089580E191E09093550280930E
S113129054029093570280935602089584B7877F2F
S11312A084BF88E10FB6F8948093600010926000C8
S11312B00FBE90E080E80FB6F8948093610090939D
S11312C061000FBE0E949B0608950895089580E072
S11312D091E00E947102E2EEF0E0808184608083FC
S11312E0089580E091E00E941F01089580910E010D
S11312F090910F01009729F0019790930F0180932B
S11313000E0108950F931F93CF93DF93E90180910A
S1131310460288838EE191E09F938F930E944F0A47
S113132088811F928F9384E391E09F938F930E940F
S11313304F0A89811F928F9384E491E09F938F9346
S11313400E944F0A8A811F928F9384E591E09F93B4
S11313508F930E944F0A8B811F928F9384E691E0B2
S11313609F938F930E944F0A88E090E0F801918345
S113137080838DB79EB742960FB6F8949EBF0FBE7A
S11313808DBF80E0DF91CF911F910F910895CF938E
S1131390DF93E90184E791E09F938F930E944F0AC2
S11313A088811F928F938DE891E09F938F930E9481
S11313B04F0A89811F928F9389EA91E09F938F93BB
S11313C00E944F0A8A811F928F9385EC91E09F932C
S11313D08F930E944F0A8B811F928F9381EE91E02D
S11313E09F938F930E944F0A88812DB73EB72E5E3C
S11313F03F4F0FB6F8943EBF0FBE2DBF80FF02C013
S1131400479801C0479ADF91CF9108951092CD007B
S113141087E68093CC0086E08093CA0088E18093BD
S1131420C9000E9443098DEF91E09F938F930E941E
S11314304F0A3F9A0E944E0978940F900F90C1E092
S113144080E091E00E9486020E94EF0880914602AB
S11314508C2780934602F4CFEE0FFF1F0590F49182
S1131460E02D0994FB01DC0104C08D9101908019E9
S113147021F441505040C8F7881B990B0895FB0193
S1131480DC0102C001900D9241505040D8F70895FC
S1131490DC0101C06D9341505040E0F70895A0E095
S11314A0B0E0E5E5FAE00C94EB0CFE0135966191B1
S11314B07191AF0180915602909157020E94630A84
S11314C0E2E00C94070DACE0B0E0E9E6FAE00C943D
S11314D0DB0C7C016B018A01FC011782168283817B
S11314E081FFBDC1CE0101964C01F7019381F60144
S11314F093FD859193FF81916F01882309F4ABC11A
S1131500853239F493FD859193FF81916F01853282
S113151029F4B70190E00E944B0CE7CF512C312CF9
S113152020E02032A0F48B3269F030F4803259F09C
S1131530833269F420612CC08D3239F0803339F460
S1131540216026C02260246023C0286021C027FDBA
S113155027C030ED380F3A3078F426FF06C0FAE0A1
S11315605F9E300D1124532E13C08AE0389E300D37
S11315701124332E20620CC08E3221F426FD6BC15F
S1131580206406C08C3611F4206802C0883641F409
S1131590F60193FD859193FF81916F018111C1CF74
S11315A0982F9F7D9554933028F40C5F1F4FFFE3D1
S11315B0F9830DC0833631F0833771F0833509F038
S11315C05BC022C0F801808189830E5F1F4F4424D1
S11315D04394512C540115C03801F2E06F0E711C74
S11315E0F801A080B18026FF03C0652D70E002C021
S11315F06FEF7FEFC5012C870E94400C2C01830103
S11316002C852F77222E17C03801F2E06F0E711C43
S1131610F801A080B18026FF03C0652D70E002C0F0
S11316206FEF7FEFC5012C870E94350C2C012C85B0
S11316302068222E830123FC1BC0832D90E04816D2
S11316405906B0F4B70180E290E00E944B0C3A9442
S1131650F4CFF50127FC859127FE81915F01B70145
S113166090E00E944B0C31103A94F1E04F1A51086B
S11316704114510471F7E5C0843611F0893639F507
S1131680F80127FF07C060817181828193810C5F1B
S11316901F4F08C060817181882777FD8095982F3E
S11316A00E5F1F4F2F76B22E97FF09C0909580953D
S11316B0709561957F4F8F4F9F4F2068B22E2AE01F
S11316C030E0A4010E947D0CA82EA81844C08537E0
S11316D029F42F7EB22E2AE030E025C0F22FF97FC4
S11316E0BF2E8F36C1F018F4883579F0B4C0803736
S11316F019F0883721F0AFC02F2F2061B22EB4FE2D
S11317000DC08B2D8460B82E09C024FF0AC09F2F02
S11317109660B92E06C028E030E005C020E130E034
S113172002C020E132E0F801B7FE07C06081718198
S1131730828193810C5F1F4F06C06081718180E0BC
S113174090E00E5F1F4FA4010E947D0CA82EA818E4
S1131750FB2DFF77BF2EB6FE0BC02B2D2E7FA514BD
S113176050F4B4FE0AC0B2FC08C02B2D2E7E05C076
S11317707A2C2B2D03C07A2C01C0752C24FF0DC0AC
S1131780FE01EA0DF11D8081803311F4297E09C028
S113179022FF06C07394739404C0822F867809F0E4
S11317A0739423FD13C020FF06C05A2C731418F43D
S11317B0530C5718732C731468F4B70180E290E04B
S11317C02C870E944B0C73942C85F5CF731410F462
S11317D0371801C0312C24FF12C0B70180E390E018
S11317E02C870E944B0C2C8522FF17C021FF03C0BD
S11317F088E590E002C088E790E0B7010CC0822F32
S1131800867859F021FD02C080E201C08BE227FDF9
S11318108DE2B70190E00E944B0CA51438F4B70197
S113182080E390E00E944B0C5A94F7CFAA94F40101
S1131830EA0DF11D8081B70190E00E944B0CA110CC
S1131840F5CF332009F451CEB70180E290E00E9435
S11318504B0C3A94F6CFF7018681978102C08FEF43
S11318609FEF2C96E2E10C94F70CFC01059061507B
S113187070400110D8F7809590958E0F9F1F0895A2
S1131880FC016150704001900110D8F7809590954B
S11318908E0F9F1F08950F931F93CF93DF93182FDD
S11318A0092FEB018B8181FD03C08FEF9FEF20C0D7
S11318B082FF10C04E815F812C813D814217530706
S11318C07CF4E881F9819F012F5F3F4F398328839E
S11318D0108306C0E885F985812F0995892B29F79E
S11318E02E813F812F5F3F4F3F832E83812F902F87
S11318F0DF91CF911F910F910895FA01AA27283003
S113190051F1203181F1E8946F936E7F6E5F7F4FC8
S11319108F4F9F4FAF4FB1E03ED0B4E03CD0670F44
S1131920781F891F9A1FA11D680F791F8A1F911D97
S1131930A11D6A0F711D811D911DA11D20D009F4E7
S113194068943F912AE0269F11243019305D319329
S1131950DEF6CF010895462F4770405D4193B3E012
S11319600FD0C9F7F6CF462F4F70405D4A3318F0B9
S1131970495D31FD4052419302D0A9F7EACFB4E06A
S1131980A6959795879577956795BA95C9F7009722
S11319906105710508959B01AC010A2E06945795C3
S11319A0479537952795BA95C9F7620F731F841F1A
S11319B0951FA01D08952F923F924F925F926F92B0
S11319C07F928F929F92AF92BF92CF92DF92EF92CB
S11319D0FF920F931F93CF93DF93CDB7DEB7CA1B4C
S11319E0DB0B0FB6F894DEBF0FBECDBF09942A8877
S11319F0398848885F846E847D848C849B84AA841F
S1131A00B984C884DF80EE80FD800C811B81AA81AB
S1131A10B981CE0FD11D0FB6F894DEBF0FBECDBF76
S10B1A20ED010895F894FFCFD5
S1131A280081080000013E020800000000000000D8
S1131A38000000030000000013092B090000637272
S1131A48656174696E67207265706F7274204C4F9B
S1131A584C0A0D00446174615B305D203A2025789E
S1131A68200A0D00446174615B315D203A202578B9
S1131A78200A0D00446174615B325D203A202578A8
S1131A88200A0D00446174615B335D203A20257897
S1131A98200A0D00796F752072656365697665643F
S1131AA820736F6D6520736869740A0D00796F750A
S1131AB872207265706F727420446174615B305D6A
S1131AC82069732025580A0D00796F757220726594
S1131AD8706F727420446174615B315D2069732096
S1131AE825580A0D00796F7572207265706F7274CB
S1131AF820446174615B325D2069732025580A0DA6
S1131B0800796F7572207265706F72742044617405
S1131B18615B335D2069732025580A0D0074686978
S1131B287320697320612074657374206D65737301
S1131B3861676520746F206D61726B20746865201D
S1131B487374617274207570206F662074686520E0
S1111B585553422074657374696E670A0D005C
S9030000FC
